:0D10760025303264432020253032644300D1
:0710B100021A753001130162
:100F8900120F50120FBF12103C7B007A00790875BE
:0B0F99002601E4FD120D6685081222FF
:100A4600120E1FAC06AD07E41200CBE4FBFA798068
:100A560078411200291201048F227526FF7527108E
:100A660075287675290085082A752B008F2C7B0042
:100A76007A0079091206337B007A007909120B6C29
:100A8600121016EF60120508C3E50894637480948B
:100A96008040357508638030121003EF6013AF088D
:100AA6001508D3EF940074809480501CE4F50880F8
:100AB60017120FF0EF6011E513600DE4F513FF1246
:100AC6000F6D851A14851B15E5086512602DC3E5A3
:100AD600089463748094804003750863D3E5089492
:100AE60000748094805003E4F5088508127B007A30
:100AF600007908752701E4FD120DB0E522C39508BB
:100B0600505EC3E51B9519F51DE51A9518F51CC32E
:100B160094005008E51D151D7002151CE51370287C
:100B2600C3E51B9515F517E51A9514F516C394003C
:100B36005008E517151770021516C3E5179488E5D2
:100B46001694134003751301C3E51D94F4E51C9434
:100B5600014012E513600E851A18851B19021083D1
:050B6600E4FF120F6D19
:010B6B002267
:08000300120F89120A4680FB6E
:0300230002105B6D
:0E105B00309805859908C298309902C29932E2
:03000B0002106977
:0D106900C0E0051BE51B7002051AD0E03247
:100FBF00759850438E40538EFE53890F758BC775AE
:0A0FCF008DFEC2AB75A890D28E22F1
:0810B9008F993099FDC29922C4
:100F0D008B3F8A408941AB3FAA40A941120525601C
:100F1D00130541E5417002054014F9120525FF1234
:050F2D0010B980E22272
:100D13008F828E83D3E5829400E583648094804040
:100D230041E4752A6EF529F528F527E4FFFEFDFC5D
:100D3300AB2AAA29A928A827D312058B401A74FF26
:100D4300252AF52AE52934FFF529E52834FFF52876
:100D5300E52734FFF52780D3E582158270B6158326
:020D630080B25C
:010D6500226B
:100F50007580FFE5A0541F4480F5A053A01FE4F561
:0D0F600080E5A0541F44A0F5A053A01F225F
:10103C00E4F589758A18758CFCD2AFD2A9D28C22B2
:10000E00EF1392A5EFC3131392A6EF1313543F13DE
:03001E0092A72284
:060B6C008B238A24892579
:100B72007F0612000EE4F580F526C3E5269408747C
:100B82008094804003020C867F0712000E7580FF5E
:100B9200AB23AA24A92585268275830012053E125D
:100BA20005B10C5B200C562D0BED300BF2310BF71F
:100BB200320BFC330C01340C06350C0B360C10379F
:100BC2000C15380C1A390C1F410C24420C29430C09
:100BD2002E440C33450C38460C3D480C424C0C4715
:100BE2004E0C4C500C515500000C5B7580C0806C53
:100BF2007580F980677580A480627580B0805D75AC
:100C0200809980587580928053758082804E75805D
:100C1200F880497580808044758090803F75808817
:100C2200803A75808380357580C680307580A1805A
:100C32002B758086802675808E8021758089801C28
:100C42007580C780177580C8801275808C800D757D
:100C520080C180087580BF80037580FF7F06120007
:100C62000EAF26A8077401088002C333D8FCF580B2
:100C72007F017E00120D137F0712000E7580FF05A3
:040C820026020B7CBF
:010C8600224B
:0910A8007F0712000E7580FF2283
:100FF00020B30D7F017E00120D1330B3FD7F01225F
:031000007F00224C
:1010030020B20D7F017E00120D1330B2FD7F01224D
:031013007F002239
:1010160020B10D7F017E00120D1330B1FD7F01223C
:031026007F002226
:1010290020B00D7F017E00120D1330B0FD7F01222B
:031039007F002213
:04109000D2A07F0566
:0810940000AE071FEE70F92207
:0F104C00D2A1121090C2A17F05121094C2A0224F
:0C109C00C2A1121090D2A17F0502109496
:100FD900C2A0A20092A17F05121094121090C2A083
:070FE900D2A17F0502109464
:0A0FA400AB0512104C7FA0120DEAFD
:100FAE00121090A2A19200C2A07F05121094A2006E
:010FBE002210
:020DEA00AD0753
:100DEC00E4FCECC39408748094805024C2A07F056A
:100DFC00121094ED30E704D2A18002C2A17F05123B
:100E0C001094D2A0ED25E0FD7F051210940C80D239
:020E1C00C2A072
:010E1E0022B1
:100EC100E4FCECC39408748094805017121090EDE8
:100ED10025E0FD30A103430501C2A07F0512109456
:050EE1000C80DFAF05ED
:010EE60022E9
:100D66008B228A238924120FA4AF03120DEA120FD5
:100D7600AE12104C7FA1120DEA120FAEAF26152649
:100D8600EF6024120EC1AB220524E524AA237002CB
:100D9600052314F9EF12056BE5266004C2008002F4
:0A0DA600D200120FD980D502109C74
:100DB0008B238A248925120FA4AF03120DEA120F88
:100DC000AEAF271527EF601FAB230525E525AA2425
:100DD0007002052414F9120525FF120DEA120FAE58
:0A0DE0007FC812109480DA02109C04
:040F32007F057E00B9
:100F3600EF1FAA0670011E4A600FE4FDEDC3940C74
:090F46007480948050EA0D80F3E0
:010F4F00227F
:0410C1007F1EDFFEB1
:0110C5002208
:020E4C00A907F4
:100E4E00E4FBEBC39408748094805012C294E913AF
:100E5E009294120F32D294E9C313F90B80E47F05FA
:050E6E007E00020F36BA
:100EE700E4FBEBC39408748094805017C294ECC35E
:100EF70013FCD2941210C1309403430480120F32B2
:050F07000B80DFAF04C8
:010F0C0022C2
:100E7300C200D2947F0C7E00120F36C2947F507E44
:100E830000120F36D2947F0A7E00120F36A294927C
:060E930000120F32A20064
:010E99002236
:100E1F00120E737FCC120E4C7F44120E4C120E73B7
:100E2F007FCC120E4C7FBE120E4C120EE7A907128A
:0C0E3F000EE7EFFE7C00E429FFEC3EFE15
:010E4B002284
:100F6D008F237F0512000EE4F580E52324FF928682
:0C0F7D0085231E7F0412000E7580FF22E9
:0D108300E51E70047F0180027F00020F6DEA
:1000260002017AEC5D046005E85904700302017070
:1000360012013B580460F6EC4860F2EC7004FDFED9
:10004600FF22C860DB2481C85009C39860025006AD
:100056000201779850CAF582E9294B4A7005AB82AE
:1000660002016675F0007C1A7880C3EF9BEE9AED6C
:1000760099400DC3EF9BFFEE9AFEED99FDE842F025
:10008600DC23ACF0D0E0FFD0E0FED0E0FDAB822078
:10009600E7101BEB60BAEC2CFCEF33FFEE33FEED02
:1000A60033FD020152E803F830E705C0F075F000B1
:1000B600EF2FFFEE33FEED33FD40B830E7C280AAE6
:1000C60075F020800E75F010800575F0087D007EB5
:1000D600007F003392D530D50312057DEC334010F6
:1000E600EF33FFEE33FEED33FDEC33FCD5F0ED22BE
:0E00F600E5F0247EA2D513CC92E7CDCEFF22FA
:10010400EDD2E7CD33EC3392D524814006E4FFFEF3
:10011400FDFC22FCE4CFCECDCC24E0501174FF8052
:10012400EDC3CC13CCCD13CDCE13CECF13CF0470EF
:07013400F030D5DE02057D6D
:1005D700E53A2426F8E6053A2278233007027826FA
:1005E700E475F0011205A10205252000EB7F2ED24C
:1005F700008018EF540F2490D43440D4FF30040BFC
:10060700EF24BFB41A0050032461FFE53B600215D5
:100617003B053EE53E7002053D30070D7823E47546
:10062700F0011205A1EF02056B020E9A7403D207BF
:100637008003E4C207F53A8B238A248925E4F53B36
:10064700F53DF53EE53B60077F2012061280F57504
:100657003CFFC201C200C202C203C205C206C208F1
:100667001205E0FF700D3007057F00120623AF3E2D
:10067700AE3D22B4255FC2D5C2041205E0FF24D0E7
:10068700B40A00501A75F00A783B30D50508B6FF52
:100697000106C6A426F620D5047002D20380D92409
:1006A700CFB41A00EF5004C2E5D204020910D201F8
:1006B70080C6D20080C0D20280BCD2D580BAD20513
:1006C70080B47F201206122002077401B53B004058
:1006D700F11205D7FF12061202064BD208D2068086
:1006E700951205D7FB1205D7FA1205D7F94A4B70B1
:1006F7000679077A0A7BFF20022EE53B602A7E00F7
:100707008E8275830012053E60060EEE653C70F022
:10071700C2D5EBC0E0EAC0E0E9C0E0EE120970D054
:10072700E0F9D0E0FAD0E0FB120525FF60AAEBC0A4
:10073700E0EAC0E0E9C0E0120612D0E02401F9D0F7
:10074700E03400FAD0E0FBE53C0460DCD53CD9801E
:1007570087D20280A212095360F7E53C70010412A8
:100767000185A93C600DE53C600914F53C1209FAC6
:10077700EF60F3EA30E702F404C3995077EAF4250F
:100787003C0430E701E404F53C800D12095360C1D5
:10079700EA053C253C120185EA7839F630E701E4A1
:1007A700253C04D53C0420050114120970E4C0E07F
:1007B7001209FA7839E6601320E70714F61205FAEA
:1007C700802204F6D0E014C0E07F001205FAE53C71
:1007D70060071205F1153C800B3005031205F1D0B7
:1007E700E002064BD0E00480C512095360A0E53C47
:1007F700041201857839EAF6E53C20050260010418
:05080700240412097039
:10080C0074FF04C0E01209FA1205FAE53C20050257
:10081C0060031205F1D0E0B53CE87F451206047880
:10082C0039E67F2B30E7047F2DF404C0E01206126A
:10083C00D0E075F00A84C0F01205FBD0E01205FB85
:10084C0002064B791080027908C206C2088008D2D1
:10085C00D5790A8004790AC2D5E53C047002F53CCE
:10086C00E4FAFDFEFF1205D7FC7B082001131205EC
:10087C00D7FD7B1030000A1205D7FE1205D7FF7B7F
:10088C0020EC3382D592D55013C3E43000069FFF81
:10089C00E49EFEE42001039DFDE49CFCE4CBF8C245
:1008AC0001EC700CCFCECDCCE824F8F870F38017A7
:1008BC00C3EF33FFEE33FEED33FDEC33FCEB33FBD8
:1008CC00994002FB0FD8E9EB300105F8D0E0C448A1
:1008DC00B201C0E00AEC4D4E4F78207B0070C2EAAA
:1008EC00B53C0040BCC0E0120972D0F0D0E0200151
:1008FC0004C4C0E0C4B201C0F01205FBD0F0D5F0C6
:10090C00EB02064B1205B106E853084F5806B94CDA
:10091C0006B54208534F085B44085B4906CE4308B2
:10092C00615507924607F045075C470A275006BDFC
:10093C002D06C12E06E42B06C52306E2200A102A3A
:10094C00067D48000006DCE53CB4FF03753C06124E
:10095C0005D7FC1205D7FD1205D7FE1205D7FF7877
:10096C00320201B4790AA2D5200314300509B9105A
:10097C00020404B9080104A2D52006025001042087
:10098C0002689202B53B005034C0E07F203003195E
:10099C007F30A20272067205500F1209C9C202C240
:1009AC0006C205C2087F30800F300503E9C0E01293
:1009BC000612300503D0E0F9D0E0B53BCC3005177A
:1009CC007F30B9100C1206127F583004077F7880E4
:1009DC0003B908031206123002057F2D0206127F9E
:1009EC00202008F87F2B2006F322920280CF7F0074
:1009FC00B4070050052432F8E6FF22286E756C6CA3
:100A0C002900D2011205D73001F8C201783B30D54C
:100A1C000108F602067D2D504349581205D72403D0
:100A2C00B405004001E4900A2293120603743A12B2
:0A0A3C000603D203753B0402084FC5
:10013B00E9D2E7C933E833F892D5EDD2E7CD33EC0A
:07014B0033FC5002B2D52283
:10015200EC30E7100FBF000C0EBE00080DBD00040E
:100162000BEB6014A2D5EB13FCED92E7FD2274FFBA
:10017200FCFDFEFF22E480F8A2D574FF13FC7D8013
:03018200E480EF27
:10018500F920E72824F950037907E4F42402FB1841
:10019500DBFDE624FB5014E9600DE4F618E604F6F1
:0F01A500B40A08E4F6D9F57401F60A22C2D5228D
:1001B400ED33EC3392D5FA602AB4FF33EDC2E77B1A
:1001C400FF60067A0179D9E4227A0179E220D50424
:1001D4007A0179DD224E614E002B494E46002D49AD
:1001E4004E4600E47A08F608DAFC7B00740722E83D
:1001F400C0E0ECC0E0EDC0E0EEC0E0EFC0E0EA75C6
:10020400F010A4CAABF075F04DA42BFBE435F0FC60
:10021400EA2410FAEB34C5FBEC34D9FCEDC2E7FF59
:1002240075F056A4F42411C5F0F434C58FF0A42A53
:10023400E5F03BE43CF620E7141204E5D0E0FFD0FF
:10024400E0FED0E0FDD0E0FC1200298014F404129A
:1002540004E5D0E0FFD0E0FED0E0FDD0E0FC1203E6
:10026400AFD0E0F8E6FAEDD2E7CD33EC332482FBED
:10027400E4C3CF33CFCE33CECD33CD33DBF37B07E3
:1002840075F00A846004F6081B0AE5F0F6088FF09E
:10029400740AA4FFACF08EF0740AA42CFEACF050E7
:1002A400010C8DF0740AA42CFDE435F0F608DBDEB5
:0302B400740722AA
:1002B700020170E86480F8E933E83360110460F004
:1002C700ED33EC337009E8FCE9FDEAFEEBFF2204AD
:1002D70060DED3EB9FEA9EE99DE8C2E78CF0C2F7A8
:1002E70095F0400CE8CCF8E9CDF9EACEFAEBCFFB74
:1002F70012013B85D0F05804700320D5B3E8047091
:10030700075002B2D502017A92D5EC0460F7E4CC2B
:10031700C0E0C398F8603B94186008400DD0E0FB3C
:10032700020152E4FBFAC9FC8028E830E406E4C97C
:10033700FBE4CAFCE830E305E4C9CACBFCE8540790
:100347006010F8C3E913F9EA13FAEB13FBEC13FC9B
:10035700D8F130F52FC3E49CFCEF9BFFEE9AFEED3E
:1003670099FDD0E0FBEF4E4D4C701222DB030201EA
:1003770077EC2CFCEF33FFEE33FEED33FDED30E78A
:10038700EB020152EF2BFFEE3AFEED39FDD0E0FB19
:1003970050130BBB000302017AED13FDEE13FEEFC2
:0803A70013FFEC13FC020152EC
:1003AF00EC4D6011E8497017ED33EC3304600DE448
:1003BF00FCFFFEFD22E933E8330470F802017012EE
:1003CF00013B58046009E4CC2481500628500902EF
:1003DF00017A284003020177C0E0EB4A7044B980EC
:1003EF0006D0E0FB020166EF4E701CBD8008EBFFEC
:1003FF00EAFEE9FD80EBE98DF0A4FEE5F00204983A
:10040F00E9CDF9EAFEEBFFEF89F0A4FCE5F0CE8928
:10041F00F0A42EFFE435F0CD89F0A42DFEE435F0E5
:10042F008067EF4E7005BD80D780C3EF8BF0A4AC13
:10043F00F0EE8BF0A42CFCE435F0F8EF8AF0A42C4E
:10044F00E5F038FCE433CB8DF0A42CFCE5F03BF861
:10045F00EE8AF0A42CFCE5F038F8E433CF89F0A451
:10046F002CFCE5F038CF3400CE89F0A42FFFE5F057
:10047F003EFEE433C98DF0A42EFEE5F039CD8AF0AF
:10048F00A42FFFE5F03EFEE43DFD33D0E0FB500727
:10049F000BBB000F02017AEC2CFCEF33FFEE33FEA7
:0604AF00ED33FD020152D5
:1004B5003F8000004120000042C80000447A00004F
:1004C500461C400047C35000497424004B189680D1
:1004D5004CBEBC205A0E1BCA6753C21C749DC5AEC8
:1004E500FB60065407601C2323120513EB54386088
:1004F500091204FF12050E1203AFECF8EDF9EEFA3E
:10050500EFCB22EB12050E80F1543803241C900426
:10051500B5FE93FC0EEE93FD0EEE930ECE93FF22E9
:03000000020C8768
:0C0C8700787FE4F6D8FD758141020CCEA8
:10052500BB010689828A83E0225002E722BBFE02D4
:09053500E32289828A83E4932207
:10053E00BB010CE58229F582E5833AF583E0225072
:10054E0006E92582F8E622BBFE06E92582F8E222BC
:0D055E00E58229F582E5833AF583E49322D6
:10056B00BB010689828A83F0225002F722BBFE016F
:02057B00F32269
:0E057D00C3E49FFFE49EFEE49DFDE49CFC228F
:10058B00EB9FF5F0EA9E42F0E99D42F0EC6480C8E7
:06059B0064809845F02287
:1005A100FAE6FB0808E6F925F0F618E6CA3AF6225B
:1005B100D083D082F8E4937012740193700DA3A3D9
:1005C10093F8740193F5828883E4737402936860ED
:0605D100EFA3A3A380DFED
:100E9A00EFB40A07740D120EA5740A309811A899B6
:100EAA00B8130CC2983098FDA899C298B811F630B8
:070EBA0099FDC299F5992290
:100C9300020003E493A3F8E493A34003F68001F274
:100CA30008DFF48029E493A3F85407240CC8C33362
:100CB300C4540F4420C8834004F456800146F6DF31
:100CC300E4800B01020408102040809010B1E47E00
:100CD300019360BCA3FF543F30E509541FFEE49326
:100CE300A360010ECF54C025E060A840B8E493A3ED
:100CF300FAE493A3F8E493A3C8C582C8CAC583CA18
:100D0300F0A3C8C582C8CAC583CADFE9DEE780BECF
:0110B8000037
:00000001FF
