:101058002D312D2030253033640025303364202095
:0610680025303264430054
:100FE10009152D312D203031323000010D0101085C
:080FF10001020A00780112015F
:10102A00120FA912106E7F05121097E4F5807F0443
:07103A001210977580FF22E0
:100C1D0080757528FF752910752A58850A2B850B47
:100C2D002C7B007A00791512062B7B007A00791542
:100C3D00120A3E1210D0E50B450A70047E018002A7
:100C4D007E00EF4E600CE4F50AF50BF50C7F0112FA
:100C5D000003E50C6008E4F50CAF09120003121057
:100C6D00AAEF6012E4F50912113AE4FF120FC675EE
:100C7D000A00750B78221210BDEF6096E50D146019
:100C8D000E047017750D01750A00750B788083754C
:100C9D000D02750A00750BF0020C1FE4F50DF50A37
:050CAD00F50B020C1F15
:100B5900E5086038E4F508120EA28F22120E75AC72
:100B690006AD07E41201BBE4FBFA79807841120172
:100B7900191201F4AD07AC06E41201BBE4FBFAF962
:100B8900783F1200251201F48E238F247528FF75F2
:100B99002910752A62752B0085222C85232D852421
:100BA9002E7B007A00791512062B7B007A007915C5
:100BB900120A3EE50C603DE4F50CD3E52294C874B5
:100BC90080948040047F0180027F00D3E52494193A
:100BD900E523940040047E0180027E00EE4F551209
:100BE900600512112E8005E4FF120FC67580FFAF54
:100BF90009120FFA1210AAEF600BE4F50912113A63
:100C0900E4FF020FC61210E3EF7003020B59E4F57B
:040C190012020B595F
:1010F60012102A7580FF120E46120B59120C1D8013
:01110600F8F0
:03001B00020D3E95
:100D3E00C0E0C0D075D000C007050FE50F700205EA
:100D4E000EC394E8E50E94034019750E00750F005E
:100D5E00D3E50B9400E50A94004008E50B150B70E3
:100D6E0002150A0514E51470020513C394F4E51375
:100D7E00940140097513007514007508010511E5FD
:100D8E001170020510C394F4E5109401401BE5099F
:100D9E0070047F0180027F008F09751000751100AD
:100DAE00E50B450A6003750C01D007D0D0D0E032B8
:100DBE008F828E83D3E5829400E583648094804095
:100DCE0041E4752C6EF52BF52AF529E4FFFEFDFCAA
:100DDE00AB2CAA2BA92AA829D3120583401A74FF7B
:100DEE00252CF52CE52B34FFF52BE52A34FFF52ABF
:100DFE00E52934FFF52980D3E582158270B6158377
:020E0E0080B2B0
:010E100022BF
:100FA9007580FFE5A0541F4480F5A053A01FE4F508
:0D0FB90080E5A0541F44A0F5A053A01F2206
:10106E00538EBF53890F758B18758DFCC28FD28E20
:05107E00D2ABD2AF224D
:100E46007F04121097E4F522C3E522940874809477
:100E560080501BAF22A8077401088002C333D8FC58
:0E0E6600F4F5807FF47E01120DBE052280DAC5
:010E7400225B
:100003008F227F041210977580FF7F017E00120DEF
:08001300BEE52224FF928022C9
:100FFA008F257F041210977580FF7F017E00120DE6
:08100A00BEE52524FF928122BE
:101012008F1E7F041210977580FF7F017E00120DD4
:08102200BEE51E24FF928222AC
:060A3E008B258A268927A2
:100A44007F06121097E4F580F528C3E5289408740E
:100A54008094804003020B587F071210977580FF23
:100A6400AB25AA26A927852882758300120536128C
:100A740005A90B2D200B282D0ABF300AC4310AC941
:100A8400320ACE330AD3340AD8350ADD360AE237BD
:100A94000AE7380AEC390AF1410AF6420AFB430B29
:100AA40000440B05450B0A460B0F480B144C0B195D
:100AB4004E0B1E500B235500000B2D7580C0806C0F
:100AC4007580F980677580A480627580B0805D75DB
:100AD400809980587580928053758082804E75808D
:100AE400F880497580808044758090803F75808847
:100AF400803A75808380357580C680307580A1808A
:100B04002B758086802675808E8021758089801C57
:100B14007580C780177580C8801275808C800D75AC
:100B240080C180087580BF80037580FF7F06121026
:100B340097AF28A8077401088002C333D8FCF58056
:100B44007F017E00120DBE7F071210977580FF058E
:040B540028020A4E1B
:010B5800227A
:09113A007F071210977580FF2257
:10109700EF1392A5EFC3131392A6EF1313543F1345
:0310A70092A722EB
:1010AA0020B30D7F0A7E00120DBE30B3FD7F0122F0
:0310BA007F002292
:1010BD0020B20D7F0A7E00120DBE30B2FD7F0122DF
:0310CD007F00227F
:1010D00020B10D7F0A7E00120DBE30B1FD7F0122CE
:0310E0007F00226C
:1010E30020B00D7F0A7E00120DBE30B0FD7F0122BD
:0310F3007F002259
:04111600D2A07F05DF
:08111A0000AE071FEE70F92280
:0F110700D2A1121116C2A17F0512111AC2A02285
:0C112200C2A1121116D2A17F0502111A01
:10104100C2A0A20092A17F0512111A121116C2A00C
:07105100D2A17F0502111A74
:03108300120E1139
:10108600121116A2A19200C2A07F0512111AA20087
:011096002237
:020E1100AD072B
:100E1300E4FCECC39408748094805024C2A07F0542
:100E230012111AED30E704D2A18002C2A17F05128C
:100E3300111AD2A0ED25E0FD7F0512111A0C80D204
:020E4300C2A04B
:010E4500228A
:100F3F00E4FCECC39408748094805017121116EDE2
:100F4F0025E0FD30A103430501C2A07F0512111A50
:050F5F000C80DFAF056E
:010F6400226A
:100EA2001211077F901210837F41121083121107D3
:100EB2007F91120E11121086120F3FAD07D200124F
:070EC2001041121122AF05DF
:010EC9002206
:040F8B007F057E0060
:100F8F00EF1FAA0670011E4A600FE4FDEDC3940C1B
:090F9F007480948050EA0D80F387
:010FA8002226
:041143007F1EDFFE2E
:011147002285
:020ECA00A90776
:100ECC00E4FBEBC39408748094805012C294E91331
:100EDC009294120F8BD294E9C313F90B80E47F0523
:050EEC007E00020F8FE3
:100F6500E4FBEBC39408748094805017C294ECC3DF
:100F750013FCD294121143309403430480120F8B57
:050F85000B80DFAF044A
:010F8A002244
:100EF100C200D2947F0C7E00120F8FC2947F507E6D
:100F010000120F8FD2947F0A7E00120F8FA294924B
:060F110000120F8BA2008C
:010F170022B7
:100E7500120EF17FCC120ECA7F44120ECA120EF169
:100E85007FCC120ECA7FBE120ECA120F65A90712B9
:0C0E95000F65EFFE7C00E429FFEC3EFE40
:010EA100222E
:100FC6008F257F05121097758040E52524FF9286B0
:0B0FD60092097F041210977580FF2223
:0C112E002009047F0180027F00020FC630
:10001E00020260E86480F8E933E83360110460F0AE
:10002E00ED33EC337009E8FCE9FDEAFEEBFF220448
:10003E0060DED3EB9FEA9EE99DE8C2E78CF0C2F743
:10004E0095F0400CE8CCF8E9CDF9EACEFAEBCFFB0F
:10005E0012022B85D0F05804700320D5B3E804703B
:10006E00075002B2D502026A92D5EC0460F7E4CCD6
:10007E00C0E0C398F8603B94186008400DD0E0FBD8
:10008E00020242E4FBFAC9FC8028E830E406E4C927
:10009E00FBE4CAFCE830E305E4C9CACBFCE854072C
:1000AE006010F8C3E913F9EA13FAEB13FBEC13FC37
:1000BE00D8F130F52FC3E49CFCEF9BFFEE9AFEEDDA
:1000CE0099FDD0E0FBEF4E4D4C701222DB03020285
:1000DE0067EC2CFCEF33FFEE33FEED33FDED30E736
:1000EE00EB020242EF2BFFEE3AFEED39FDD0E0FBC4
:1000FE0050130BBB000302026AED13FDEE13FEEF6D
:08010E0013FFEC13FC02024296
:1001160002026AEC5D046005E8590470030202609D
:1001260012022B580460F6EC4860F2EC7004FDFEF7
:10013600FF22C860DB2481C85009C39860025006BC
:100146000202679850CAF582E9294B4A7005AB82CC
:1001560002025675F0007C1A7880C3EF9BEE9AED8A
:1001660099400DC3EF9BFFEE9AFEED99FDE842F034
:10017600DC23ACF0D0E0FFD0E0FED0E0FDAB822087
:10018600E7101BEB60BAEC2CFCEF33FFEE33FEED11
:1001960033FD020242E803F830E705C0F075F000CF
:1001A600EF2FFFEE33FEED33FD40B830E7C280AAF5
:1001B60075F020800E75F010800575F0087D007EC4
:1001C600007F003392D530D503120575EC3340100D
:1001D600EF33FFEE33FEED33FDEC33FCD5F0ED22CD
:0E01E600E5F0247EA2D513CC92E7CDCEFF2209
:1001F400EDD2E7CD33EC3392D524814006E4FFFE03
:10020400FDFC22FCE4CFCECDCC24E0501174FF8061
:10021400EDC3CC13CCCD13CDCE13CECF13CF0470FE
:07022400F030D5DE02057584
:1005CF00E53C2428F8E6053C2278253007027828F8
:1005DF00E475F00112059902051D2000EB7F2ED264
:1005EF00008018EF540F2490D43440D4FF30040B04
:1005FF00EF24BFB41A0050032461FFE53D600215DC
:10060F003D0540E5407002053F30070D7825E47544
:10061F00F001120599EF020563020F187403D20758
:10062F008003E4C207F53C8B258A268927E4F53D34
:10063F00F53FF540E53D60077F2012060A80F5750E
:10064F003EFFC201C200C202C203C205C206C208F7
:10065F001205D8FF700D3007057F0012061BAF4043
:10066F00AE3F22B4255FC2D5C2041205D8FF24D0F5
:10067F00B40A00501A75F00A783D30D50508B6FF58
:10068F000106C6A426F620D5047002D20380D92411
:10069F00CFB41A00EF5004C2E5D204020908D20108
:1006AF0080C6D20080C0D20280BCD2D580BAD2051B
:1006BF0080B47F2012060A2002077401B53D004066
:1006CF00F11205CFFF12060A020643D208D20680A6
:1006DF00951205CFFB1205CFFA1205CFF94A4B70D1
:1006EF000679FF7A097BFF20022EE53D602A7E0006
:1006FF008E8275830012053660060EEE653E70F031
:10070F00C2D5EBC0E0EAC0E0E9C0E0EE120968D064
:10071F00E0F9D0E0FAD0E0FB12051DFF60AAEBC0B4
:10072F00E0EAC0E0E9C0E012060AD0E02401F9D007
:10073F00E03400FAD0E0FBE53E0460DCD53ED98022
:10074F0087D20280A212094B60F7E53E70010412B6
:10075F000275A93E600DE53E600914F53E1209F2DF
:10076F00EF60F3EA30E702F404C3995077EAF42517
:10077F003E0430E701E404F53E800D12094B60C1E1
:10078F00EA053E253E120275EA783BF630E701E4B2
:10079F00253E04D53E0420050114120968E4C0E08B
:1007AF001209F2783BE6601320E70714F61205F200
:1007BF00802204F6D0E014C0E07F001205F2E53E7F
:1007CF0060071205E9153E800B3005031205E9D0CD
:1007DF00E0020643D0E00480C512094B60A0E53E5D
:1007EF0004120275783BEAF6E53E2005026001042B
:0507FF0024041209684A
:1008040074FF04C0E01209F21205F2E53E2005026D
:1008140060031205E9D0E0B53EE87F451205FC7897
:100824003BE67F2B30E7047F2DF404C0E012060A78
:10083400D0E075F00A84C0F01205F3D0E01205F39D
:10084400020643791080027908C206C2088008D2E1
:10085400D5790A8004790AC2D5E53E047002F53ED2
:10086400E4FAFDFEFF1205CFFC7B082001131205FC
:10087400CFFD7B1030000A1205CFFE1205CFFF7B9F
:1008840020EC3382D592D55013C3E43000069FFF89
:10089400E49EFEE42001039DFDE49CFCE4CBF8C24D
:1008A40001EC700CCFCECDCCE824F8F870F38017AF
:1008B400C3EF33FFEE33FEED33FDEC33FCEB33FBE0
:1008C400994002FB0FD8E9EB300105F8D0E0C448A9
:1008D400B201C0E00AEC4D4E4F78207B0070C2EAB2
:1008E400B53E0040BCC0E012096AD0F0D0E020015F
:1008F40004C4C0E0C4B201C0F01205F3D0F0D5F0D6
:10090400EB0206431205A906E05308475806B14C0A
:1009140006AD42084B4F08534408534906C64308E2
:100924005955078A4607E8450754470A1F5006B534
:100934002D06B92E06DC2B06BD2306DA200A082A6A
:10094400067548000006D4E53EB4FF03753E061262
:1009540005CFFC1205CFFD1205CFFE1205CFFF789F
:10096400340202A4790AA2D5200314300509B9106F
:10097400020404B9080104A2D5200602500104208F
:1009840002689202B53D005034C0E07F2030031964
:100994007F30A20272067205500F1209C1C202C250
:1009A40006C205C2087F30800F300503E9C0E0129B
:1009B400060A300503D0E0F9D0E0B53DCC30051788
:1009C4007F30B9100C12060A7F583004077F7880F4
:1009D40003B9080312060A3002057F2D02060A7FB6
:1009E400202008F87F2B2006F322920280CF7F007C
:1009F400B4070050052434F8E6FF22286E756C6CA9
:100A04002900D2011205CF3001F8C201783D30D55A
:100A14000108F60206752D504349581205CF2403E8
:100A2400B405004001E4900A1A931205FB743A12CB
:0A0A340005FBD203753D04020847DC
:10022B00E9D2E7C933E833F892D5EDD2E7CD33EC19
:07023B0033FC5002B2D52292
:10024200EC30E7100FBF000C0EBE00080DBD00041D
:100252000BEB6014A2D5EB13FCED92E7FD2274FFC9
:10026200FCFDFEFF22E480F8A2D574FF13FC7D8022
:03027200E480EF36
:10027500F920E72824F950037907E4F42402FB1850
:10028500DBFDE624FB5014E9600DE4F618E604F600
:0F029500B40A08E4F6D9F57401F60A22C2D5229C
:1002A400ED33EC3392D5FA602AB4FF33EDC2E77B29
:1002B400FF60067A0279C9E4227A0279D220D50451
:1002C4007A0279CD224E614E002B494E46002D49CB
:1002D4004E4600E47A08F608DAFC7B00740722E84C
:1002E400C0E0ECC0E0EDC0E0EEC0E0EFC0E0EA75D5
:1002F400F010A4CAABF075F04DA42BFBE435F0FC70
:10030400EA2410FAEB34C5FBEC34D9FCEDC2E7FF68
:1003140075F056A4F42411C5F0F434C58FF0A42A62
:10032400E5F03BE43CF620E7141204DDD0E0FFD016
:10033400E0FED0E0FDD0E0FC1201198014F40412B8
:1003440004DDD0E0FFD0E0FED0E0FDD0E0FC1203FD
:10035400A7D0E0F8E6FAEDD2E7CD33EC332482FB04
:10036400E4C3CF33CFCE33CECD33CD33DBF37B07F2
:1003740075F00A846004F6081B0AE5F0F6088FF0AD
:10038400740AA4FFACF08EF0740AA42CFEACF050F6
:10039400010C8DF0740AA42CFDE435F0F608DBDEC4
:0303A400740722B9
:1003A700EC4D6011E8497017ED33EC3304600DE450
:1003B700FCFFFEFD22E933E8330470F80202601205
:1003C700022B58046009E4CC248150062850090206
:1003D700026A284003020267C0E0EB4A7044B98012
:1003E70006D0E0FB020256EF4E701CBD8008EBFF03
:1003F700EAFEE9FD80EBE98DF0A4FEE5F00204904A
:10040700E9CDF9EAFEEBFFEF89F0A4FCE5F0CE8930
:10041700F0A42EFFE435F0CD89F0A42DFEE435F0ED
:100427008067EF4E7005BD80D780C3EF8BF0A4AC1B
:10043700F0EE8BF0A42CFCE435F0F8EF8AF0A42C56
:10044700E5F038FCE433CB8DF0A42CFCE5F03BF869
:10045700EE8AF0A42CFCE5F038F8E433CF89F0A459
:100467002CFCE5F038CF3400CE89F0A42FFFE5F05F
:100477003EFEE433C98DF0A42EFEE5F039CD8AF0B7
:10048700A42FFFE5F03EFEE43DFD33D0E0FB50072F
:100497000BBB000F02026AEC2CFCEF33FFEE33FEBE
:0604A700ED33FD020242EC
:1004AD003F8000004120000042C80000447A000057
:1004BD00461C400047C35000497424004B189680D9
:1004CD004CBEBC205A0E1BCA6753C21C749DC5AED0
:1004DD00FB60065407601C232312050BEB54386098
:1004ED00091204F71205061203A7ECF8EDF9EEFA5E
:1004FD00EFCB22EB12050680F1543803241C900437
:10050D00ADFE93FC0EEE93FD0EEE930ECE93FF22F9
:03000000020CB23D
:0C0CB200787FE4F6D8FD758140020CF953
:10051D00BB010689828A83E0225002E722BBFE02DC
:09052D00E32289828A83E493220F
:10053600BB010CE58229F582E5833AF583E022507A
:1005460006E92582F8E622BBFE06E92582F8E222C4
:0D055600E58229F582E5833AF583E49322DE
:10056300BB010689828A83F0225002F722BBFE0177
:02057300F32271
:0E057500C3E49FFFE49EFEE49DFDE49CFC2297
:10058300EB9FF5F0EA9E42F0E99D42F0EC6480C8EF
:0605930064809845F0228F
:10059900FAE6FB0808E6F925F0F618E6CA3AF62263
:1005A900D083D082F8E4937012740193700DA3A3E1
:1005B90093F8740193F5828883E4737402936860F5
:0605C900EFA3A3A380DFF5
:100F1800EFB40A07740D120F23740A309811A899B8
:100F2800B8130CC2983098FDA899C298B811F63039
:070F380099FDC299F5992211
:100CBE000210F6E493A3F8E493A34003F68001F246
:100CCE0008DFF48029E493A3F85407240CC8C33337
:100CDE00C4540F4420C8834004F456800146F6DF06
:100CEE00E4800B0102040810204080900FE1E47EA6
:100CFE00019360BCA3FF543F30E509541FFEE493FB
:100D0E00A360010ECF54C025E060A840B8E493A3C1
:100D1E00FAE493A3F8E493A3C8C582C8CAC583CAEC
:100D2E00F0A3C8C582C8CAC583CADFE9DEE780BEA4
:010FF90000F7
:00000001FF
