:0B040200090C2D312D2030313230006C
:060415001203C102040EF7
:1003F1001204157580FF7B007A00790C12000380CE
:01040100F505
:10033F008F828E83D3E5829400E58364809480401E
:10034F0041E4751C6EF51BF51AF519E4FFFEFDFC73
:10035F00AB1CAA1BA91AA819D312024A401A74FF80
:10036F00251CF51CE51B34FFF51BE51A34FFF51AA8
:10037F00E51934FFF51980D3E582158270B6158320
:02038F0080B23A
:010391002249
:1003C1007580FFE5A0541F4480F5A053A01FE4F5FC
:0D03D10080E5A0541F44A0F5A053A01F22FA
:100392007F041203DEE4F51DC3E51D940874809406
:1003A20080501BAF1DA8077401088002C333D8FC1C
:0E03B200F4F5807FF47E0112033F051D80DA12
:0103C000221A
:060003008B158A16891717
:100009007F061203DEE4F580F518C3E51894087439
:1000190080948040030201157F071203DE7580FF7B
:10002900AB15AA16A91785188275830012021D122D
:10003900026000F22000ED2D008430008931008E2D
:1000490032009333009834009D3500A23600A7375B
:1000590000AC3800B13900B64100BB4200C04300D2
:10006900C54400CA4500CF4600D44800D94C00DE3B
:100079004E00E35000E855000000F27580C0806C26
:100089007580F980677580A480627580B0805D7520
:10009900809980587580928053758082804E7580D2
:1000A900F880497580808044758090803F7580888C
:1000B900803A75808380357580C680307580A180CF
:1000C9002B758086802675808E8021758089801C9D
:1000D9007580C780177580C8801275808C800D75F2
:1000E90080C180087580BF80037580FF7F06120379
:1000F900DEAF18A8077401088002C333D8FCF58065
:0C0109007F017E0012033F051802001366
:0101150022C7
:1003DE00EF1392A5EFC3131392A6EF1313543F130B
:0303EE0092A722B1
:07040E00C2A5C2A6C2A7228D
:10011600C2C4D2C2D2B5D2B4E5B0540F7E00D2C4A6
:10012600C2C2D2B5D2B4C4F8540FC868FFEEC454E4
:10013600F048FEE5B0540FFDEF4DD2C4D2C2C2B5B1
:10014600D2B4C4F8540FC868FFEEC454F048FEE5B4
:10015600B0540FFDEF4DD2C4D2C2D2B5C2B4C4F86A
:10016600540FC868FFEEC454F048FEE5B0540FFDC6
:10017600EF4DF4FFEEF4FEEF8EF01202860212004F
:1001860001020D0002020800040203000801FE003D
:100196001001F9002001F4004001EF008001EA019E
:1001A6000001E5020001E0040001DB080001D610B1
:1001B6000001D1200001CC400001C78000000002F0
:1001C60017751E04804E751E058049751E068044EF
:1001D600751E07803F751E08803A751E09803575A5
:1001E6001E0A8030751E0B802B751E0C8026751E10
:1001F6000D8021751E0E801C751E0F8017751E1032
:100206008012751E11800D751E128008751E1380D2
:0602160003E4F51EAF1E1B
:01021C0022BF
:030000000202B346
:0C02B300787FE4F6D8FD75811E0202FA87
:10021D00BB010CE58229F582E5833AF583E0225096
:10022D0006E92582F8E622BBFE06E92582F8E222E0
:0D023D00E58229F582E5833AF583E49322FA
:10024A00EB9FF5F0EA9E42F0E99D42F0EC6480C82B
:06025A0064809845F022CB
:10026000D083D082F8E4937012740193700DA3A32D
:1002700093F8740193F5828883E473740293686041
:06028000EFA3A3A380DF41
:10028600D083D082F8E4937012740193700DA3A307
:1002960093F8740193F5828883E473740293B5F03E
:0D02A600067403936860E9A3A3A3A380D8A6
:1002BF000203F1E493A3F8E493A34003F68001F261
:1002CF0008DFF48029E493A3F85407240CC8C33340
:1002DF00C4540F4420C8834004F456800146F6DF0F
:1002EF00E4800B0102040810204080900402E47E99
:1002FF00019360BCA3FF543F30E509541FFEE49304
:10030F00A360010ECF54C025E060A840B8E493A3CA
:10031F00FAE493A3F8E493A3C8C582C8CAC583CAF5
:10032F00F0A3C8C582C8CAC583CADFE9DEE780BEAD
:01040D0000EE
:00000001FF
