:100915002D312D20302530336400253033642020DF
:040925003235430024
:0E095F0009292D312D203031323000012501C3
:10093C001208AF1209001209A37B007A0079290270
:02094C00037A2C
:1006F1008038750DFF750E09750F1585231085243A
:10070100117B007A00792912007A7B007A0079291D
:1007110012037A1208CCEF702D1208E6EF60D3E5D0
:100721002514600E04701675250175230075247853
:1007310080C07525027523007524F080B5E4F52588
:07074100F523F52480AC2232
:100803001200007508008F09750DFF750E09750F2D
:100813001F8523108524117B007A00792912007A21
:0F0823007B007A00792912037A1208CCEF60D19A
:0108320022A3
:0E097D0012093C7580FF1206F112080380F883
:03001B000207D009
:1007D000C0E0C0D00527E52770020526C394E8E5F0
:1007E0002694034019752600752700D3E52494004C
:1007F000E52394004008E524152470021523D0D089
:03080000D0E03213
:100748008F828E83D3E5829400E583648094804011
:1007580041E475116EF510F50FF50EE4FFFEFDFC92
:10076800AB11AA10A90FA80ED31205C1401A74FF25
:100778002511F511E51034FFF510E50F34FFF50FDD
:10078800E50E34FFF50E80D3E582158270B6158329
:0207980080B22D
:01079A00223C
:1008AF007580FFE5A0541F4480F5A053A01FE4F509
:0D08BF0080E5A0541F44A0F5A053A01F2207
:10090000538EBF53890F758B18758DFCC28FD28E95
:05091000D2ABD2AF22C2
:100833007F04120929E4F51EC3E51E94087480940D
:1008430080501BAF1EA8077401088002C333D8FC75
:0E085300F4F5807FF47E01120748051E80DA5E
:010861002274
:06037A008B0A8A0B890CBE
:100380007F06120929E4F580F50DC3E50D94087484
:10039000809480400302048C7F071209297580FF36
:1003A000AB0AAA0BA90C850D827583001205941265
:1003B00005D704692004642D03FB300400310405D3
:1003C00032040A33040F34041435041936041E377A
:1003D000042338042839042D4104324204374304ED
:1003E0003C44044145044646044B4804504C0455E3
:1003F0004E045A50045F55000004697580C0806C3B
:100400007580F980677580A480627580B0805D75A5
:10041000809980587580928053758082804E758057
:10042000F880497580808044758090803F75808811
:10043000803A75808380357580C680307580A18054
:100440002B758086802675808E8021758089801C22
:100450007580C780177580C8801275808C800D7577
:1004600080C180087580BF80037580FF7F061209F8
:1004700029AF0DA8077401088002C333D8FCF580AA
:0C0480007F017E00120748050D02038A70
:01048C00224D
:10092900EF1392A5EFC3131392A6EF1313543F13BA
:0309390092A72260
:0709A300C2A5C2A6C2A722F3
:10048D00C2C4D2C2D2B5D2B4E5B0540F7E00D2C42C
:10049D00C2C2D2B5D2B4C4F8540FC868FFEEC4546A
:1004AD00F048FEE5B0540FFDEF4DD2C4D2C2C2B537
:1004BD00D2B4C4F8540FC868FFEEC454F048FEE53A
:1004CD00B0540FFDEF4DD2C4D2C2D2B5C2B4C4F8F0
:1004DD00540FC868FFEEC454F048FEE5B0540FFD4C
:1004ED00EF4DF4FFEEF4FEEF8EF01205FD058900E1
:1004FD000105840002057F0004057A0008057500DA
:10050D001005700020056B00400566008005610137
:10051D0000055C02000557040005520800054D104A
:10052D00000548200005434000053E800000000501
:10053D008E751F04804E751F058049751F068044FA
:10054D00751F07803F751F08803A751F0980357527
:10055D001F0A8030751F0B802B751F0C8026751F91
:10056D000D8021751F0E801C751F0F8017751F10B4
:10057D008012751F11800D751F128008751F138055
:06058D0003E4F51FAF1F9F
:010593002245
:04098B00D2A07F0572
:08098F0000AE071FEE70F92213
:0F096E00D2A112098BC2A17F0512098FC2A0224C
:0C099700C2A112098BD2A17F0502098FBA
:10000300C2A0A20992A17F0512098F12098BC2A077
:07001300D2A17F0502098F55
:10094E0012098BA2A1920AC2A07F0512098FA20AD8
:01095E002276
:02079B00AD07A8
:10079D00E4FCECC39408748094805024C2A07F05BF
:1007AD0012098FED30E704D2A18002C2A17F05129C
:1007BD00098FD2A0ED25E0FD7F0512098F0C80D2A7
:0207CD00C2A0C8
:0107CF002207
:10088900E4FCECC3940874809480501712098BED32
:1008990025E0FD30A103430501C2A07F0512098FA0
:0508A9000C80DFAF052B
:0108AE002227
:1008CC0020B3147F0A7E0012074820B30A7FC87E2B
:0A08DC00001207487F01227F00226E
:1008E60020B2147F0A7E0012074820B20A7FC87E13
:0A08F600001207487F01227F002254
:0300000002066590
:0C066500787FE4F6D8FD7581310206AC08
:10059400BB010CE58229F582E5833AF583E022501C
:1005A40006E92582F8E622BBFE06E92582F8E22266
:0D05B400E58229F582E5833AF583E4932280
:1005C100EB9FF5F0EA9E42F0E99D42F0EC6480C8B1
:0605D10064809845F02251
:1005D700D083D082F8E4937012740193700DA3A3B3
:1005E70093F8740193F5828883E4737402936860C7
:0605F700EFA3A3A380DFC7
:1005FD00D083D082F8E4937012740193700DA3A38D
:10060D0093F8740193F5828883E473740293B5F0C3
:0D061D00067403936860E9A3A3A3A380D82B
:10001E00E519240DF8E6051922780A300702780D45
:10002E00E475F00112065502062A2000EB7F2ED24F
:10003E00008018EF540F2490D43440D4FF30040BBA
:10004E00EF24BFB41A0050032461FFE51A600215B5
:10005E001A051DE51D7002051C30070D780AE475A2
:10006E00F001120655EF0206430208627403D2072E
:10007E008003E4C207F5198B0A8A0B890CE4F51A82
:10008E00F51CF51DE51A60077F2012005980F575E5
:10009E001BFFC201C200C202C203C205C206C208D1
:1000AE00120027FF700D3007057F0012006AAF1D8A
:1000BE00AE1C22B4255FC2D5C204120027FF24D085
:1000CE00B40A00501A75F00A781A30D50508B6FF32
:1000DE000106C6A426F620D5047002D20380D924C8
:1000EE00CFB41A00EF5004C2E5D20402026AD20164
:1000FE0080C6D20080C0D20280BCD2D580BAD205D2
:10010E0080B47F201200592002077401B51A0040F6
:10011E00F112001EFF120059020092D208D2068080
:10012E009512001EFB12001EFA12001EF94A4B70A9
:10013E0006793B7A037BFF20022EE51A602A7E00A9
:10014E008E8275830012059460060EEE651B70F0AC
:10015E00C2D5EBC0E0EAC0E0E9C0E0EE1202B1D0D9
:10016E00E0F9D0E0FAD0E0FB12062AFF60AAEBC05D
:10017E00E0EAC0E0E9C0E0120059D0E02401F9D075
:10018E00E03400FAD0E0FBE51B0460DCD51BD9801F
:10019E00877BFF7A0279ADD202809C79108002793A
:1001AE0008C206C2088008D2D5790A8004790AC22C
:1001BE00D5E51B047002F51BE4FAFDFEFF12001ECE
:1001CE00FC7B0820011312001EFD7B1030000A126A
:1001DE00001EFE12001EFF7B20EC3382D592D550FE
:1001EE0013C3E43000069FFFE49EFEE42001039D4E
:1001FE00FDE49CFCE4CBF8C201EC700CCFCECDCC70
:10020E00E824F8F870F38017C3EF33FFEE33FEEDFA
:10021E0033FDEC33FCEB33FB994002FB0FD8E9EBDB
:10022E00300105F8D0E0C448B201C0E00AEC4D4EF2
:10023E004F78207B0070C2EAB51B0040BCC0E012B4
:10024E0002B3D0F0D0E0200104C4C0E0C4B201C0BB
:10025E00F0120042D0F0D5F0EB0200921205D70159
:10026E002F5301A95801004C00FC4201AD4F01B5BE
:0F027E004401B54901154301BB55019F46019F3E
:10028D0045019F47035B5001042D01082E012B2BC7
:10029D00010C2301292003442A00C4480000012336
:1002AD003F3F3F00790AA2D5200314300509B9104C
:1002BD00020404B9080104A2D5200602500104204D
:1002CD0002689202B51A005034C0E07F2030031945
:1002DD007F30A20272067205500F12030AC202C2CB
:1002ED0006C205C2087F30800F300503E9C0E01259
:1002FD000059300503D0E0F9D0E0B51ACC30051720
:10030D007F30B9100C1200597F583004077F788068
:10031D0003B908031200593002057F2D0200597FE1
:10032D00202008F87F2B2006F322920280CF286E22
:10033D00756C6C2900D20112001E3001F8C20178D3
:10034D001A30D50108F60200C42D50434958120049
:10035D001E2403B405004001E49003569312004A95
:0D036D00743A12004AD203751A040201A965
:1006710002097DE493A3F8E493A34003F68001F219
:1006810008DFF48029E493A3F85407240CC8C3338A
:10069100C4540F4420C8834004F456800146F6DF59
:1006A100E4800B010204081020408090095FE47E81
:1006B100019360BCA3FF543F30E509541FFEE4934E
:1006C100A360010ECF54C025E060A840B8E493A315
:1006D100FAE493A3F8E493A3C8C582C8CAC583CA40
:1006E100F0A3C8C582C8CAC583CADFE9DEE780BEF8
:01096D000089
:10062A00BB010689828A83E0225002E722BBFE02CE
:09063A00E32289828A83E4932201
:10064300BB010689828A83F0225002F722BBFE0196
:02065300F32290
:10065500FAE6FB0808E6F925F0F618E6CA3AF622A6
:10086200EFB40A07740D12086D740A309811A89932
:10087200B8130CC2983098FDA899C298B811F630F6
:0708820099FDC299F59922CE
:00000001FF
