:101051002D312D203025303364002530336420209C
:061061002530326443005B
:1010A30009102D312D203031323000010B010108A0
:0110B300013B
:0910E7001210001210670210F053
:100D71008038752AFF752B10752C5185092D850A30
:100D81002E7B007A0079101206587B007A007910C8
:100D9100120A6B12101DEF702D121037EF60D3E5A0
:100DA1000B14600E047016750B01750900750A7835
:100DB10080C0750B02750900750AF080B5E4F50B6A
:070DC100F509F50A80AC22E0
:100D1100E5086025E4F508120EF98F22120ECCAC1D
:100D210006AD07E41200C3E4FBFA798078411200B2
:100D3100218F268E258D248C23752AFF752B107506
:100D41002C5B752D0085222EAF26AE25AD24AC235C
:100D51001200FC8E2F8F307B007A0079101206581A
:0F0D61007B007A007910120A6B12101DEF60A14F
:010D70002260
:0B10DC001210E77580FF120D1180FB61
:03001B00020E1BB7
:100E1B00C0E0C0D0050DE50D7002050CC394E8E5EC
:100E2B000C94034019750C00750D00D3E50A940062
:100E3B00E50994004008E50A150A70021509050F2B
:100E4B00E50F7002050EC394F4E50E94014009758D
:0D0E5B000E00750F00750801D0D0D0E032F8
:100DC8008F828E83D3E5829400E58364809480408B
:100DD80041E4752E6EF52DF52CF52BE4FFFEFDFC98
:100DE800AB2EAA2DA92CA82BD3120583401A74FF69
:100DF800252EF52EE52D34FFF52DE52C34FFF52CA9
:100E0800E52B34FFF52B80D3E582158270B6158368
:020E180080B2A6
:010E1A0022B5
:101000007580FFE5A0541F4480F5A053A01FE4F5B0
:0D10100080E5A0541F44A0F5A053A01F22AE
:10106700538EBF53890F758B18758DFCC28FD28E27
:05107700D2ABD2AF2254
:100E9D007F04121090E4F519C3E519940874809439
:100EAD0080501BAF19A8077401088002C333D8FC0A
:0E0EBD00F4F5807FF47E01120DC8051980DA6D
:010ECB002204
:060A6B008B278A2889296F
:100A71007F06121090E4F580F52AC3E52A940874E4
:100A81008094804003020B7D7F071210907580FFD8
:100A9100AB27AA28A929852A827583001205361257
:100AA10005A90B5A200B552D0AEC300AF1310AF633
:100AB100320AFB330B00340B05350B0A360B0F37AB
:100AC1000B14380B19390B1E410B23420B28430B16
:100AD1002D440B32450B37460B3C480B414C0B4622
:100AE1004E0B4B500B505500000B5A7580C0806C5B
:100AF1007580F980677580A480627580B0805D75AE
:100B0100809980587580928053758082804E75805F
:100B1100F880497580808044758090803F75808819
:100B2100803A75808380357580C680307580A1805C
:100B31002B758086802675808E8021758089801C2A
:100B41007580C780177580C8801275808C800D757F
:100B510080C180087580BF80037580FF7F061210F9
:100B610090AF2AA8077401088002C333D8FCF5802E
:0C0B71007F017E00120DC8052A020A7BDD
:010B7D002255
:10109000EF1392A5EFC3131392A6EF1313543F134C
:0310A00092A722F2
:0710F000C2A5C2A6C2A7229F
:100B7E00C2C4D2C2D2B5D2B4E5B0540F7E00D2C434
:100B8E00C2C2D2B5D2B4C4F8540FC868FFEEC45472
:100B9E00F048FEE5B0540FFDEF4DD2C4D2C2C2B53F
:100BAE00D2B4C4F8540FC868FFEEC454F048FEE542
:100BBE00B0540FFDEF4DD2C4D2C2D2B5C2B4C4F8F8
:100BCE00540FC868FFEEC454F048FEE5B0540FFD54
:100BDE00EF4DF4FFEEF4FEEF8EF01205CF0C7A001F
:100BEE00010C7500020C7000040C6B00080C660002
:100BFE00100C6100200C5C00400C5700800C520160
:100C0E00000C4D02000C4804000C4308000C3E1072
:100C1E00000C3920000C3440000C2F800000000C1A
:100C2E007F751A04804E751A058049751A06804420
:100C3E00751A07803F751A08803A751A098035753E
:100C4E001A0A8030751A0B802B751A0C8026751AAD
:100C5E000D8021751A0E801C751A0F8017751A10CB
:100C6E008012751A11800D751A128008751A13806C
:060C7E0003E4F51AAF1AB1
:010C8400224D
:10101D0020B3147F0A7E00120DC820B30A7FC87E4C
:0A102D0000120DC87F01227F00228F
:1010370020B2147F0A7E00120DC820B20A7FC87E34
:0A10470000120DC87F01227F002275
:0410C400D2A07F0532
:0810C80000AE071FEE70F922D3
:0F10B500D2A11210C4C2A17F051210C8C2A0227E
:0C10D000C2A11210C4D2A17F050210C8FA
:10000300C2A0A20092A17F051210C81210C4C2A000
:07001300D2A17F050210C815
:03107C00120E68E9
:10107F001210C4A2A19200C2A07F051210C8A20034
:01108F00223E
:020E6800AD07D4
:100E6A00E4FCECC39408748094805024C2A07F05EB
:100E7A001210C8ED30E704D2A18002C2A17F051288
:100E8A0010C8D2A0ED25E0FD7F051210C80C80D253
:020E9A00C2A0F4
:010E9C002233
:100F9600E4FCECC394087480948050171210C4EDDE
:100FA60025E0FD30A103430501C2A07F051210C84C
:050FB6000C80DFAF0517
:010FBB002213
:100EF9001210B57F9012107C7F4112107C1210B530
:100F09007F91120E6812107F120F96AD07D2001250
:070F190000031210D0AF0528
:010F200022AE
:040FE2007F057E0009
:100FE600EF1FAA0670011E4A600FE4FDEDC3940CC4
:090FF6007480948050EA0D80F330
:010FFF0022CF
:0410F7007F1EDFFE7B
:0110FB0022D2
:020F2100A9071E
:100F2300E4FBEBC39408748094805012C294E913D9
:100F33009294120FE2D294E9C313F90B80E47F0574
:050F43007E00020FE634
:100FBC00E4FBEBC39408748094805017C294ECC388
:100FCC0013FCD2941210F7309403430480120FE2F6
:050FDC000B80DFAF04F3
:010FE10022ED
:100F4800C200D2947F0C7E00120FE6C2947F507EBE
:100F580000120FE6D2947F0A7E00120FE6A2949246
:060F680000120FE2A200DE
:010F6E002260
:100ECC00120F487FCC120F217F44120F21120F48B2
:100EDC007FCC120F217FBE120F21120FBCA907125B
:0C0EEC000FBCEFFE7C00E429FFEC3EFE92
:010EF80022D7
:10001E00020172EC5D046005E85904700302016888
:10002E00120133580460F6EC4860F2EC7004FDFEE9
:10003E00FF22C860DB2481C85009C39860025006B5
:10004E0002016F9850CAF582E9294B4A7005AB82BE
:10005E0002015E75F0007C1A7880C3EF9BEE9AED7C
:10006E0099400DC3EF9BFFEE9AFEED99FDE842F02D
:10007E00DC23ACF0D0E0FFD0E0FED0E0FDAB822080
:10008E00E7101BEB60BAEC2CFCEF33FFEE33FEED0A
:10009E0033FD02014AE803F830E705C0F075F000C1
:1000AE00EF2FFFEE33FEED33FD40B830E7C280AAEE
:1000BE0075F020800E75F010800575F0087D007EBD
:1000CE00007F003392D530D503120575EC33401006
:1000DE00EF33FFEE33FEED33FDEC33FCD5F0ED22C6
:0E00EE00E5F0247EA2D513CC92E7CDCEFF2202
:1000FC00EDD2E7CD33EC3392D524814006E4FFFEFC
:10010C00FDFC22FCE4CFCECDCC24E0501174FF805A
:10011C00EDC3CC13CCCD13CDCE13CECF13CF0470F7
:07012C00F030D5DE0205757D
:1005FC00E53E242AF8E6053E227827300702782AC1
:10060C00E475F00112059902051D2000EB7F2ED236
:10061C00008018EF540F2490D43440D4FF30040BD6
:10062C00EF24BFB41A0050032461FFE53F600215AC
:10063C003F0542E5427002054130070D7827E4750D
:10064C00F001120599EF020563020F6F7403D207D4
:10065C008003E4C207F53E8B278A288929E4F53FFD
:10066C00F541F542E53F60077F2012063780F575AE
:10067C0040FFC201C200C202C203C205C206C208C8
:10068C00120605FF700D3007057F00120648AF42B9
:10069C00AE4122B4255FC2D5C204120605FF24D098
:1006AC00B40A00501A75F00A783F30D50508B6FF29
:1006BC000106C6A426F620D5047002D20380D924E4
:1006CC00CFB41A00EF5004C2E5D204020935D201AE
:1006DC0080C6D20080C0D20280BCD2D580BAD205EE
:1006EC0080B47F201206372002077401B53F00400A
:1006FC00F11205FCFF120637020670D208D20680F2
:10070C00951205FCFB1205FCFA1205FCF94A4B701C
:10071C0006792C7A0A7BFF20022EE53F602A7E00A8
:10072C008E8275830012053660060EEE654070F001
:10073C00C2D5EBC0E0EAC0E0E9C0E0EE120995D00A
:10074C00E0F9D0E0FAD0E0FB12051DFF60AAEBC087
:10075C00E0EAC0E0E9C0E0120637D0E02401F9D0AD
:10076C00E03400FAD0E0FBE5400460DCD540D980F1
:10077C0087D20280A212097860F7E540700104125A
:10078C00017DA940600DE540600914F540120A1F77
:10079C00EF60F3EA30E702F404C3995077EAF425EA
:1007AC00400430E701E404F540800D12097860C183
:1007BC00EA0540254012017DEA783DF630E701E478
:1007CC00254004D5400420050114120995E4C0E02D
:1007DC00120A1F783DE6601320E70714F612061F75
:1007EC00802204F6D0E014C0E07F0012061FE54022
:1007FC0060071206161540800B300503120616D042
:10080C00E0020670D0E00480C512097860A0E540D3
:10081C000412017D783DEAF6E540200502600104F2
:05082C002404120995EF
:1008310074FF04C0E0120A1F12061FE540200502E2
:100841006003120616D0E0B540E87F45120629780C
:100851003DE67F2B30E7047F2DF404C0E01206371C
:10086100D0E075F00A84C0F0120620D0E012062014
:10087100020670791080027908C206C2088008D287
:10088100D5790A8004790AC2D5E540047002F540A1
:10089100E4FAFDFEFF1205FCFC7B082001131205A2
:1008A100FCFD7B1030000A1205FCFE1205FCFF7BEB
:1008B10020EC3382D592D55013C3E43000069FFF5C
:1008C100E49EFEE42001039DFDE49CFCE4CBF8C220
:1008D10001EC700CCFCECDCCE824F8F870F3801782
:1008E100C3EF33FFEE33FEED33FDEC33FCEB33FBB3
:1008F100994002FB0FD8E9EB300105F8D0E0C4487C
:10090100B201C0E00AEC4D4E4F78207B0070C2EA84
:10091100B5400040BCC0E0120997D0F0D0E0200102
:1009210004C4C0E0C4B201C0F0120620D0F0D5F07A
:10093100EB0206701205A9070D5308745806DE4C28
:1009410006DA4208784F08804408804906F34308D4
:10095100865507B7460815450781470A4C5006E2F8
:100961002D06E62E07092B06EA230707200A352A5A
:1009710006A24800000701E540B4FF0375400612D6
:1009810005FCFC1205FCFD1205FCFE1205FCFF78BE
:10099100360201AC790AA2D5200314300509B91039
:1009A100020404B9080104A2D52006025001042062
:1009B10002689202B53F005034C0E07F2030031935
:1009C1007F30A20272067205500F1209EEC202C2F6
:1009D10006C205C2087F30800F300503E9C0E0126E
:1009E1000637300503D0E0F9D0E0B53FCC3005172C
:1009F1007F30B9100C1206377F583004077F78809A
:100A010003B908031206373002057F2D0206377F2E
:100A1100202008F87F2B2006F322920280CF7F004E
:100A2100B4070050052436F8E6FF22286E756C6C79
:100A31002900D2011205FC3001F8C201783F30D5FE
:100A41000108F60206A22D504349581205FC240361
:100A5100B405004001E4900A4793120628743A1243
:0A0A61000628D203753F0402087452
:10013300E9D2E7C933E833F892D5EDD2E7CD33EC12
:0701430033FC5002B2D5228B
:10014A00EC30E7100FBF000C0EBE00080DBD000416
:10015A000BEB6014A2D5EB13FCED92E7FD2274FFC2
:10016A00FCFDFEFF22E480F8A2D574FF13FC7D801B
:03017A00E480EF2F
:10017D00F920E72824F950037907E4F42402FB1849
:10018D00DBFDE624FB5014E9600DE4F618E604F6F9
:0F019D00B40A08E4F6D9F57401F60A22C2D52295
:1001AC00ED33EC3392D5FA602AB4FF33EDC2E77B22
:1001BC00FF60067A0179D1E4227A0179DA20D5043C
:1001CC007A0179D5224E614E002B494E46002D49BD
:1001DC004E4600E47A08F608DAFC7B00740722E845
:1001EC00C0E0ECC0E0EDC0E0EEC0E0EFC0E0EA75CE
:1001FC00F010A4CAABF075F04DA42BFBE435F0FC69
:10020C00EA2410FAEB34C5FBEC34D9FCEDC2E7FF61
:10021C0075F056A4F42411C5F0F434C58FF0A42A5B
:10022C00E5F03BE43CF620E7141204DDD0E0FFD00F
:10023C00E0FED0E0FDD0E0FC1200218014F40412AA
:10024C0004DDD0E0FFD0E0FED0E0FDD0E0FC1203F6
:10025C00A7D0E0F8E6FAEDD2E7CD33EC332482FBFD
:10026C00E4C3CF33CFCE33CECD33CD33DBF37B07EB
:10027C0075F00A846004F6081B0AE5F0F6088FF0A6
:10028C00740AA4FFACF08EF0740AA42CFEACF050EF
:10029C00010C8DF0740AA42CFDE435F0F608DBDEBD
:0302AC00740722B2
:1002AF00020168E86480F8E933E83360110460F014
:1002BF00ED33EC337009E8FCE9FDEAFEEBFF2204B5
:1002CF0060DED3EB9FEA9EE99DE8C2E78CF0C2F7B0
:1002DF0095F0400CE8CCF8E9CDF9EACEFAEBCFFB7C
:1002EF0012013385D0F05804700320D5B3E80470A1
:1002FF00075002B2D502017292D5EC0460F7E4CC3C
:10030F00C0E0C398F8603B94186008400DD0E0FB44
:10031F0002014AE4FBFAC9FC8028E830E406E4C98C
:10032F00FBE4CAFCE830E305E4C9CACBFCE8540798
:10033F006010F8C3E913F9EA13FAEB13FBEC13FCA3
:10034F00D8F130F52FC3E49CFCEF9BFFEE9AFEED46
:10035F0099FDD0E0FBEF4E4D4C701222DB030201F2
:10036F006FEC2CFCEF33FFEE33FEED33FDED30E79A
:10037F00EB02014AEF2BFFEE3AFEED39FDD0E0FB29
:10038F0050130BBB0003020172ED13FDEE13FEEFD2
:08039F0013FFEC13FC02014AFC
:1003A700EC4D6011E8497017ED33EC3304600DE450
:1003B700FCFFFEFD22E933E8330470F802016812FE
:1003C700013358046009E4CC2481500628500902FF
:1003D700017228400302016FC0E0EB4A7044B98004
:1003E70006D0E0FB02015EEF4E701CBD8008EBFFFC
:1003F700EAFEE9FD80EBE98DF0A4FEE5F00204904A
:10040700E9CDF9EAFEEBFFEF89F0A4FCE5F0CE8930
:10041700F0A42EFFE435F0CD89F0A42DFEE435F0ED
:100427008067EF4E7005BD80D780C3EF8BF0A4AC1B
:10043700F0EE8BF0A42CFCE435F0F8EF8AF0A42C56
:10044700E5F038FCE433CB8DF0A42CFCE5F03BF869
:10045700EE8AF0A42CFCE5F038F8E433CF89F0A459
:100467002CFCE5F038CF3400CE89F0A42FFFE5F05F
:100477003EFEE433C98DF0A42EFEE5F039CD8AF0B7
:10048700A42FFFE5F03EFEE43DFD33D0E0FB50072F
:100497000BBB000F020172EC2CFCEF33FFEE33FEB7
:0604A700ED33FD02014AE5
:1004AD003F8000004120000042C80000447A000057
:1004BD00461C400047C35000497424004B189680D9
:1004CD004CBEBC205A0E1BCA6753C21C749DC5AED0
:1004DD00FB60065407601C232312050BEB54386098
:1004ED00091204F71205061203A7ECF8EDF9EEFA5E
:1004FD00EFCB22EB12050680F1543803241C900437
:10050D00ADFE93FC0EEE93FD0EEE930ECE93FF22F9
:03000000020C856A
:0C0C8500787FE4F6D8FD758142020CCCAB
:10051D00BB010689828A83E0225002E722BBFE02DC
:09052D00E32289828A83E493220F
:10053600BB010CE58229F582E5833AF583E022507A
:1005460006E92582F8E622BBFE06E92582F8E222C4
:0D055600E58229F582E5833AF583E49322DE
:10056300BB010689828A83F0225002F722BBFE0177
:02057300F32271
:0E057500C3E49FFFE49EFEE49DFDE49CFC2297
:10058300EB9FF5F0EA9E42F0E99D42F0EC6480C8EF
:0605930064809845F0228F
:10059900FAE6FB0808E6F925F0F618E6CA3AF62263
:1005A900D083D082F8E4937012740193700DA3A3E1
:1005B90093F8740193F5828883E4737402936860F5
:0605C900EFA3A3A380DFF5
:1005CF00D083D082F8E4937012740193700DA3A3BB
:1005DF0093F8740193F5828883E473740293B5F0F2
:0D05EF00067403936860E9A3A3A3A380D85A
:100F6F00EFB40A07740D120F7A740A309811A8990A
:100F7F00B8130CC2983098FDA899C298B811F630E2
:070F8F0099FDC299F59922BA
:100C91000210DCE493A3F8E493A34003F68001F28D
:100CA10008DFF48029E493A3F85407240CC8C33364
:100CB100C4540F4420C8834004F456800146F6DF33
:100CC100E4800B01020408102040809010A3E47E10
:100CD100019360BCA3FF543F30E509541FFEE49328
:100CE100A360010ECF54C025E060A840B8E493A3EF
:100CF100FAE493A3F8E493A3C8C582C8CAC583CA1A
:100D0100F0A3C8C582C8CAC583CADFE9DEE780BED1
:0110B400003B
:00000001FF
