:10095B002D312D2030253033640025303364202099
:04096B0032354300DE
:10099600092A2D312D203031323000012501012266
:0109A600014F
:0909DA001208F51209460209E3B6
:1006F1008038750CFF750D09750E5B85230F8524F8
:10070100107B007A00792A12007A7B007A00792A1C
:1007110012037A120912EF702D12092CEF60D3E542
:100721002514600E04701675250175230075247853
:1007310080C07525027523007524F080B5E4F52588
:07074100F523F52480AC2232
:10081D00E5226008E4F5221208808F08750CFF753B
:10082D000D09750E65750F008508107B007A00792E
:10083D002A12007A7B007A00792A12037A120912A1
:03084D00EF60CD8C
:010850002285
:0B09CF001209DA7580FF12081D80FB82
:03001B0002079B3E
:10079B00C0E0C0D00527E52770020526C394E8E525
:1007AB002694034019752600752700D3E524940081
:1007BB00E52394004008E524152470021523052930
:1007CB00E52970020528C394F4E5289401400975C6
:0D07DB002800752900752201D0D0D0E03231
:100748008F828E83D3E5829400E583648094804011
:1007580041E475106EF50FF50EF50DE4FFFEFDFC96
:10076800AB10AA0FA90EA80DD31205C1401A74FF29
:100778002510F510E50F34FFF50FE50E34FFF50EE3
:10078800E50D34FFF50D80D3E582158270B615832B
:0207980080B22D
:01079A00223C
:1008F5007580FFE5A0541F4480F5A053A01FE4F5C3
:0D09050080E5A0541F44A0F5A053A01F22C0
:10094600538EBF53890F758B18758DFCC28FD28E4F
:05095600D2ABD2AF227C
:100851007F04120983E4F51DC3E51D940874809497
:1008610080501BAF1DA8077401088002C333D8FC58
:0E087100F4F5807FF47E01120748051D80DA41
:01087F002256
:06037A008B098A0A890BC1
:100380007F06120983E4F580F50CC3E50C9408742C
:10039000809480400302048C7F071209837580FFDC
:1003A000AB09AA0AA90B850C827583001205941269
:1003B00005D704692004642D03FB300400310405D3
:1003C00032040A33040F34041435041936041E377A
:1003D000042338042839042D4104324204374304ED
:1003E0003C44044145044646044B4804504C0455E3
:1003F0004E045A50045F55000004697580C0806C3B
:100400007580F980677580A480627580B0805D75A5
:10041000809980587580928053758082804E758057
:10042000F880497580808044758090803F75808811
:10043000803A75808380357580C680307580A18054
:100440002B758086802675808E8021758089801C22
:100450007580C780177580C8801275808C800D7577
:1004600080C180087580BF80037580FF7F061209F8
:1004700083AF0CA8077401088002C333D8FCF58051
:0C0480007F017E00120748050C02038A71
:01048C00224D
:10098300EF1392A5EFC3131392A6EF1313543F1360
:0309930092A72206
:0709E300C2A5C2A6C2A722B3
:10048D00C2C4D2C2D2B5D2B4E5B0540F7E00D2C42C
:10049D00C2C2D2B5D2B4C4F8540FC868FFEEC4546A
:1004AD00F048FEE5B0540FFDEF4DD2C4D2C2C2B537
:1004BD00D2B4C4F8540FC868FFEEC454F048FEE53A
:1004CD00B0540FFDEF4DD2C4D2C2D2B5C2B4C4F8F0
:1004DD00540FC868FFEEC454F048FEE5B0540FFD4C
:1004ED00EF4DF4FFEEF4FEEF8EF01205FD058900E1
:1004FD000105840002057F0004057A0008057500DA
:10050D001005700020056B00400566008005610137
:10051D0000055C02000557040005520800054D104A
:10052D00000548200005434000053E800000000501
:10053D008E751E04804E751E058049751E068044FD
:10054D00751E07803F751E08803A751E098035752A
:10055D001E0A8030751E0B802B751E0C8026751E95
:10056D000D8021751E0E801C751E0F8017751E10B7
:10057D008012751E11800D751E128008751E138058
:06058D0003E4F51EAF1EA1
:010593002245
:1009120020B3147F0A7E0012074820B30A7FC87EE4
:0A092200001207487F01227F002227
:10092C0020B2147F0A7E0012074820B20A7FC87ECC
:0A093C00001207487F01227F00220D
:0409B700D2A07F0546
:0809BB0000AE071FEE70F922E7
:0F09A800D2A11209B7C2A17F051209BBC2A022BA
:0C09C300C2A11209B7D2A17F050209BB36
:10000300C2A0A20092A17F051209BB1209B7C2A028
:07001300D2A17F050209BB29
:03096F001207E884
:100972001209B7A2A19200C2A07F051209BBA20070
:010982002252
:0207E800AD075B
:1007EA00E4FCECC39408748094805024C2A07F0572
:1007FA001209BBED30E704D2A18002C2A17F051223
:10080A0009BBD2A0ED25E0FD7F051209BB0C80D201
:02081A00C2A07A
:01081C0022B9
:1008CF00E4FCECC394087480948050171209B7EDC0
:1008DF0025E0FD30A103430501C2A07F051209BB2E
:0508EF000C80DFAF05E5
:0108F40022E1
:100880001209A87F9012096F7F4112096F1209A8FF
:100890007F911207E81209721208CFAD07D2001239
:0708A00000031209C3AF05BC
:0108A700222E
:0300000002066590
:0C066500787FE4F6D8FD7581320206AC07
:10059400BB010CE58229F582E5833AF583E022501C
:1005A40006E92582F8E622BBFE06E92582F8E22266
:0D05B400E58229F582E5833AF583E4932280
:1005C100EB9FF5F0EA9E42F0E99D42F0EC6480C8B1
:0605D10064809845F02251
:1005D700D083D082F8E4937012740193700DA3A3B3
:1005E70093F8740193F5828883E4737402936860C7
:0605F700EFA3A3A380DFC7
:1005FD00D083D082F8E4937012740193700DA3A38D
:10060D0093F8740193F5828883E473740293B5F0C3
:0D061D00067403936860E9A3A3A3A380D82B
:10001E00E518240CF8E60518227809300702780C4A
:10002E00E475F00112065502062A2000EB7F2ED24F
:10003E00008018EF540F2490D43440D4FF30040BBA
:10004E00EF24BFB41A0050032461FFE519600215B6
:10005E0019051CE51C7002051B30070D7809E475A7
:10006E00F001120655EF0206430208A87403D207E8
:10007E008003E4C207F5188B098A0A890BE4F51987
:10008E00F51BF51CE51960077F2012005980F575E8
:10009E001AFFC201C200C202C203C205C206C208D2
:1000AE00120027FF700D3007057F0012006AAF1C8B
:1000BE00AE1B22B4255FC2D5C204120027FF24D086
:1000CE00B40A00501A75F00A781930D50508B6FF33
:1000DE000106C6A426F620D5047002D20380D924C8
:1000EE00CFB41A00EF5004C2E5D20402026AD20164
:1000FE0080C6D20080C0D20280BCD2D580BAD205D2
:10010E0080B47F201200592002077401B5190040F7
:10011E00F112001EFF120059020092D208D2068080
:10012E009512001EFB12001EFA12001EF94A4B70A9
:10013E0006793B7A037BFF20022EE519602A7E00AA
:10014E008E8275830012059460060EEE651A70F0AD
:10015E00C2D5EBC0E0EAC0E0E9C0E0EE1202B1D0D9
:10016E00E0F9D0E0FAD0E0FB12062AFF60AAEBC05D
:10017E00E0EAC0E0E9C0E0120059D0E02401F9D075
:10018E00E03400FAD0E0FBE51A0460DCD51AD98021
:10019E00877BFF7A0279ADD202809C79108002793A
:1001AE0008C206C2088008D2D5790A8004790AC22C
:1001BE00D5E51A047002F51AE4FAFDFEFF12001ED0
:1001CE00FC7B0820011312001EFD7B1030000A126A
:1001DE00001EFE12001EFF7B20EC3382D592D550FE
:1001EE0013C3E43000069FFFE49EFEE42001039D4E
:1001FE00FDE49CFCE4CBF8C201EC700CCFCECDCC70
:10020E00E824F8F870F38017C3EF33FFEE33FEEDFA
:10021E0033FDEC33FCEB33FB994002FB0FD8E9EBDB
:10022E00300105F8D0E0C448B201C0E00AEC4D4EF2
:10023E004F78207B0070C2EAB51A0040BCC0E012B5
:10024E0002B3D0F0D0E0200104C4C0E0C4B201C0BB
:10025E00F0120042D0F0D5F0EB0200921205D70159
:10026E002F5301A95801004C00FC4201AD4F01B5BE
:0F027E004401B54901154301BB55019F46019F3E
:10028D0045019F47035B5001042D01082E012B2BC7
:10029D00010C2301292003442A00C4480000012336
:1002AD003F3F3F00790AA2D5200314300509B9104C
:1002BD00020404B9080104A2D5200602500104204D
:1002CD0002689202B519005034C0E07F2030031946
:1002DD007F30A20272067205500F12030AC202C2CB
:1002ED0006C205C2087F30800F300503E9C0E01259
:1002FD000059300503D0E0F9D0E0B519CC30051721
:10030D007F30B9100C1200597F583004077F788068
:10031D0003B908031200593002057F2D0200597FE1
:10032D00202008F87F2B2006F322920280CF286E22
:10033D00756C6C2900D20112001E3001F8C20178D3
:10034D001930D50108F60200C42D5043495812004A
:10035D001E2403B405004001E49003569312004A95
:0D036D00743A12004AD2037519040201A966
:100671000209CFE493A3F8E493A34003F68001F2C7
:1006810008DFF48029E493A3F85407240CC8C3338A
:10069100C4540F4420C8834004F456800146F6DF59
:1006A100E4800B0102040810204080900996E47E4A
:1006B100019360BCA3FF543F30E509541FFEE4934E
:1006C100A360010ECF54C025E060A840B8E493A315
:1006D100FAE493A3F8E493A3C8C582C8CAC583CA40
:1006E100F0A3C8C582C8CAC583CADFE9DEE780BEF8
:0109A700004F
:10062A00BB010689828A83E0225002E722BBFE02CE
:09063A00E32289828A83E4932201
:10064300BB010689828A83F0225002F722BBFE0196
:02065300F32290
:10065500FAE6FB0808E6F925F0F618E6CA3AF622A6
:1008A800EFB40A07740D1208B3740A309811A899A6
:1008B800B8130CC2983098FDA899C298B811F630B0
:0708C80099FDC299F5992288
:00000001FF
